{
  "contractName": "Activatable",
  "abi": [
    {
      "anonymous": false,
      "inputs": [
        {
          "indexed": true,
          "internalType": "address",
          "name": "_sender",
          "type": "address"
        }
      ],
      "name": "Activate",
      "type": "event"
    },
    {
      "anonymous": false,
      "inputs": [
        {
          "indexed": true,
          "internalType": "address",
          "name": "_sender",
          "type": "address"
        }
      ],
      "name": "Deactivate",
      "type": "event"
    },
    {
      "anonymous": false,
      "inputs": [
        {
          "indexed": true,
          "internalType": "address",
          "name": "previousOwner",
          "type": "address"
        },
        {
          "indexed": true,
          "internalType": "address",
          "name": "newOwner",
          "type": "address"
        }
      ],
      "name": "OwnershipTransferred",
      "type": "event"
    },
    {
      "inputs": [],
      "name": "active",
      "outputs": [
        {
          "internalType": "bool",
          "name": "",
          "type": "bool"
        }
      ],
      "stateMutability": "view",
      "type": "function"
    },
    {
      "inputs": [],
      "name": "owner",
      "outputs": [
        {
          "internalType": "address",
          "name": "",
          "type": "address"
        }
      ],
      "stateMutability": "view",
      "type": "function"
    },
    {
      "inputs": [],
      "name": "renounceOwnership",
      "outputs": [],
      "stateMutability": "nonpayable",
      "type": "function"
    },
    {
      "inputs": [
        {
          "internalType": "address",
          "name": "newOwner",
          "type": "address"
        }
      ],
      "name": "transferOwnership",
      "outputs": [],
      "stateMutability": "nonpayable",
      "type": "function"
    },
    {
      "inputs": [],
      "name": "deactivate",
      "outputs": [],
      "stateMutability": "nonpayable",
      "type": "function"
    },
    {
      "inputs": [],
      "name": "activate",
      "outputs": [],
      "stateMutability": "nonpayable",
      "type": "function"
    }
  ],
  "bytecode": "0x608060405260008060146101000a81548160ff02191690831515021790555034801561002a57600080fd5b5061004761003c61004c60201b60201c565b61005460201b60201c565b610118565b600033905090565b60008060009054906101000a900473ffffffffffffffffffffffffffffffffffffffff169050816000806101000a81548173ffffffffffffffffffffffffffffffffffffffff021916908373ffffffffffffffffffffffffffffffffffffffff1602179055508173ffffffffffffffffffffffffffffffffffffffff168173ffffffffffffffffffffffffffffffffffffffff167f8be0079c531659141344cd1fd0a4f28419497f9722a3daafe3b4186f6b6457e060405160405180910390a35050565b610809806101276000396000f3fe608060405234801561001057600080fd5b50600436106100625760003560e01c806302fb0c5e146100675780630f15f4c01461008557806351b42b001461008f578063715018a6146100995780638da5cb5b146100a3578063f2fde38b146100c1575b600080fd5b61006f6100dd565b60405161007c91906106f2565b60405180910390f35b61008d6100f0565b005b61009761021c565b005b6100a1610346565b005b6100ab6103ce565b6040516100b891906106d7565b60405180910390f35b6100db60048036038101906100d691906105d0565b6103f7565b005b600060149054906101000a900460ff1681565b600060149054906101000a900460ff1615610140576040517f08c379a00000000000000000000000000000000000000000000000000000000081526004016101379061074d565b60405180910390fd5b6101486104ef565b73ffffffffffffffffffffffffffffffffffffffff166101666103ce565b73ffffffffffffffffffffffffffffffffffffffff16146101bc576040517f08c379a00000000000000000000000000000000000000000000000000000000081526004016101b39061072d565b60405180910390fd5b6001600060146101000a81548160ff0219169083151502179055503373ffffffffffffffffffffffffffffffffffffffff167ff7e9fe69e1d05372bc855b295bc4c34a1a0a5882164dd2b26df30a26c1c8ba1560405160405180910390a2565b600060149054906101000a900460ff1661026b576040517f08c379a00000000000000000000000000000000000000000000000000000000081526004016102629061074d565b60405180910390fd5b6102736104ef565b73ffffffffffffffffffffffffffffffffffffffff166102916103ce565b73ffffffffffffffffffffffffffffffffffffffff16146102e7576040517f08c379a00000000000000000000000000000000000000000000000000000000081526004016102de9061072d565b60405180910390fd5b60008060146101000a81548160ff0219169083151502179055503373ffffffffffffffffffffffffffffffffffffffff167f238ce44d0fada9e1348f183a8436996fb52b4c41a9cbf3af6e2dee00fcb80a9c60405160405180910390a2565b61034e6104ef565b73ffffffffffffffffffffffffffffffffffffffff1661036c6103ce565b73ffffffffffffffffffffffffffffffffffffffff16146103c2576040517f08c379a00000000000000000000000000000000000000000000000000000000081526004016103b99061072d565b60405180910390fd5b6103cc60006104f7565b565b60008060009054906101000a900473ffffffffffffffffffffffffffffffffffffffff16905090565b6103ff6104ef565b73ffffffffffffffffffffffffffffffffffffffff1661041d6103ce565b73ffffffffffffffffffffffffffffffffffffffff1614610473576040517f08c379a000000000000000000000000000000000000000000000000000000000815260040161046a9061072d565b60405180910390fd5b600073ffffffffffffffffffffffffffffffffffffffff168173ffffffffffffffffffffffffffffffffffffffff1614156104e3576040517f08c379a00000000000000000000000000000000000000000000000000000000081526004016104da9061070d565b60405180910390fd5b6104ec816104f7565b50565b600033905090565b60008060009054906101000a900473ffffffffffffffffffffffffffffffffffffffff169050816000806101000a81548173ffffffffffffffffffffffffffffffffffffffff021916908373ffffffffffffffffffffffffffffffffffffffff1602179055508173ffffffffffffffffffffffffffffffffffffffff168173ffffffffffffffffffffffffffffffffffffffff167f8be0079c531659141344cd1fd0a4f28419497f9722a3daafe3b4186f6b6457e060405160405180910390a35050565b6000813590506105ca816107bc565b92915050565b6000602082840312156105e257600080fd5b60006105f0848285016105bb565b91505092915050565b6106028161077e565b82525050565b61061181610790565b82525050565b600061062460268361076d565b91507f4f776e61626c653a206e6577206f776e657220697320746865207a65726f206160008301527f64647265737300000000000000000000000000000000000000000000000000006020830152604082019050919050565b600061068a60208361076d565b91507f4f776e61626c653a2063616c6c6572206973206e6f7420746865206f776e65726000830152602082019050919050565b60006106ca60008361076d565b9150600082019050919050565b60006020820190506106ec60008301846105f9565b92915050565b60006020820190506107076000830184610608565b92915050565b6000602082019050818103600083015261072681610617565b9050919050565b600060208201905081810360008301526107468161067d565b9050919050565b60006020820190508181036000830152610766816106bd565b9050919050565b600082825260208201905092915050565b60006107898261079c565b9050919050565b60008115159050919050565b600073ffffffffffffffffffffffffffffffffffffffff82169050919050565b6107c58161077e565b81146107d057600080fd5b5056fea264697066735822122040ce28e2f92d52ce8ea49b0259803ca0b2ce8aceea31fdcf100b73163e2895ca64736f6c63430008000033",
  "immutableReferences": {},
  "source": "// SPDX-License-Identifier: MIT\npragma solidity >=0.4.22 <0.9.0;\n\nimport \"@openzeppelin/contracts/access/Ownable.sol\";\n\ncontract Activatable is Ownable {\n  event Deactivate(address indexed _sender);\n  event Activate(address indexed _sender);\n\n  bool public active = false;\n\n  modifier whenActive() {\n    require(active, \"\");\n    _;\n  }\n\n  modifier whenNotActive() {\n    require(!active, \"\");\n    _;\n  }\n\n  function deactivate() public whenActive onlyOwner {\n    active = false;\n    emit Deactivate(msg.sender);\n  }\n\n  function activate() public whenNotActive onlyOwner {\n    active = true;\n    emit Activate(msg.sender);\n  }\n}",
  "sourcePath": "/Users/gimtaemin/myproject/contracts/Activatable.sol",
  "compiler": {
    "name": "solc",
    "version": "0.8.0+commit.c7dfd78e.Emscripten.clang"
  },
  "schemaVersion": "3.4.3",
  "updatedAt": "2021-10-03T03:32:35.935Z",
  "devdoc": {
    "kind": "dev",
    "methods": {
      "owner()": {
        "details": "Returns the address of the current owner."
      },
      "renounceOwnership()": {
        "details": "Leaves the contract without owner. It will not be possible to call `onlyOwner` functions anymore. Can only be called by the current owner. NOTE: Renouncing ownership will leave the contract without an owner, thereby removing any functionality that is only available to the owner."
      },
      "transferOwnership(address)": {
        "details": "Transfers ownership of the contract to a new account (`newOwner`). Can only be called by the current owner."
      }
    },
    "version": 1
  },
  "userdoc": {
    "kind": "user",
    "methods": {},
    "version": 1
  }
}