{
  "contractName": "RoomFactory",
  "abi": [
    {
      "anonymous": false,
      "inputs": [
        {
          "indexed": true,
          "internalType": "address",
          "name": "previousOwner",
          "type": "address"
        },
        {
          "indexed": true,
          "internalType": "address",
          "name": "newOwner",
          "type": "address"
        }
      ],
      "name": "OwnershipTransferred",
      "type": "event"
    },
    {
      "anonymous": false,
      "inputs": [
        {
          "indexed": false,
          "internalType": "address",
          "name": "account",
          "type": "address"
        }
      ],
      "name": "Paused",
      "type": "event"
    },
    {
      "anonymous": false,
      "inputs": [
        {
          "indexed": true,
          "internalType": "address",
          "name": "_creator",
          "type": "address"
        },
        {
          "indexed": false,
          "internalType": "address",
          "name": "_room",
          "type": "address"
        },
        {
          "indexed": false,
          "internalType": "uint256",
          "name": "_depositedValue",
          "type": "uint256"
        }
      ],
      "name": "RoomCreated",
      "type": "event"
    },
    {
      "anonymous": false,
      "inputs": [
        {
          "indexed": false,
          "internalType": "address",
          "name": "account",
          "type": "address"
        }
      ],
      "name": "Unpaused",
      "type": "event"
    },
    {
      "inputs": [],
      "name": "owner",
      "outputs": [
        {
          "internalType": "address",
          "name": "",
          "type": "address"
        }
      ],
      "stateMutability": "view",
      "type": "function",
      "constant": true
    },
    {
      "inputs": [],
      "name": "paused",
      "outputs": [
        {
          "internalType": "bool",
          "name": "",
          "type": "bool"
        }
      ],
      "stateMutability": "view",
      "type": "function",
      "constant": true
    },
    {
      "inputs": [],
      "name": "renounceOwnership",
      "outputs": [],
      "stateMutability": "nonpayable",
      "type": "function"
    },
    {
      "inputs": [
        {
          "internalType": "address",
          "name": "newOwner",
          "type": "address"
        }
      ],
      "name": "transferOwnership",
      "outputs": [],
      "stateMutability": "nonpayable",
      "type": "function"
    },
    {
      "inputs": [],
      "name": "createRoom",
      "outputs": [],
      "stateMutability": "payable",
      "type": "function",
      "payable": true
    }
  ],
  "bytecode": "0x608060405234801561001057600080fd5b5061002d61002261004c60201b60201c565b61005460201b60201c565b60008060146101000a81548160ff021916908315150217905550610118565b600033905090565b60008060009054906101000a900473ffffffffffffffffffffffffffffffffffffffff169050816000806101000a81548173ffffffffffffffffffffffffffffffffffffffff021916908373ffffffffffffffffffffffffffffffffffffffff1602179055508173ffffffffffffffffffffffffffffffffffffffff168173ffffffffffffffffffffffffffffffffffffffff167f8be0079c531659141344cd1fd0a4f28419497f9722a3daafe3b4186f6b6457e060405160405180910390a35050565b611acc806101276000396000f3fe608060405260043610620000505760003560e01c80633be272aa14620000555780635c975abb1462000061578063715018a614620000915780638da5cb5b14620000ab578063f2fde38b14620000db575b600080fd5b6200005f62000109565b005b3480156200006e57600080fd5b5062000079620001ea565b60405162000088919062000644565b60405180910390f35b3480156200009e57600080fd5b50620000a962000200565b005b348015620000b857600080fd5b50620000c362000291565b604051620000d29190620005fa565b60405180910390f35b348015620000e857600080fd5b50620001076004803603810190620001019190620004af565b620002ba565b005b62000113620001ea565b1562000156576040517f08c379a00000000000000000000000000000000000000000000000000000000081526004016200014d9062000683565b60405180910390fd5b6000343360405162000168906200048a565b620001749190620005fa565b6040518091039082f090508015801562000192573d6000803e3d6000fd5b5090503373ffffffffffffffffffffffffffffffffffffffff167f6849f7a409ad97d39c5ffa074bf765330bf1a574da99d4c4831196ecd77ea8da8234604051620001df92919062000617565b60405180910390a250565b60008060149054906101000a900460ff16905090565b6200020a620003be565b73ffffffffffffffffffffffffffffffffffffffff166200022a62000291565b73ffffffffffffffffffffffffffffffffffffffff161462000283576040517f08c379a00000000000000000000000000000000000000000000000000000000081526004016200027a90620006a5565b60405180910390fd5b6200028f6000620003c6565b565b60008060009054906101000a900473ffffffffffffffffffffffffffffffffffffffff16905090565b620002c4620003be565b73ffffffffffffffffffffffffffffffffffffffff16620002e462000291565b73ffffffffffffffffffffffffffffffffffffffff16146200033d576040517f08c379a00000000000000000000000000000000000000000000000000000000081526004016200033490620006a5565b60405180910390fd5b600073ffffffffffffffffffffffffffffffffffffffff168173ffffffffffffffffffffffffffffffffffffffff161415620003b0576040517f08c379a0000000000000000000000000000000000000000000000000000000008152600401620003a79062000661565b60405180910390fd5b620003bb81620003c6565b50565b600033905090565b60008060009054906101000a900473ffffffffffffffffffffffffffffffffffffffff169050816000806101000a81548173ffffffffffffffffffffffffffffffffffffffff021916908373ffffffffffffffffffffffffffffffffffffffff1602179055508173ffffffffffffffffffffffffffffffffffffffff168173ffffffffffffffffffffffffffffffffffffffff167f8be0079c531659141344cd1fd0a4f28419497f9722a3daafe3b4186f6b6457e060405160405180910390a35050565b61135a806200073d83390190565b600081359050620004a98162000722565b92915050565b600060208284031215620004c257600080fd5b6000620004d28482850162000498565b91505092915050565b620004e681620006d8565b82525050565b620004f781620006ec565b82525050565b60006200050c602683620006c7565b91507f4f776e61626c653a206e6577206f776e657220697320746865207a65726f206160008301527f64647265737300000000000000000000000000000000000000000000000000006020830152604082019050919050565b600062000574601083620006c7565b91507f5061757361626c653a20706175736564000000000000000000000000000000006000830152602082019050919050565b6000620005b6602083620006c7565b91507f4f776e61626c653a2063616c6c6572206973206e6f7420746865206f776e65726000830152602082019050919050565b620005f48162000718565b82525050565b6000602082019050620006116000830184620004db565b92915050565b60006040820190506200062e6000830185620004db565b6200063d6020830184620005e9565b9392505050565b60006020820190506200065b6000830184620004ec565b92915050565b600060208201905081810360008301526200067c81620004fd565b9050919050565b600060208201905081810360008301526200069e8162000565565b9050919050565b60006020820190508181036000830152620006c081620005a7565b9050919050565b600082825260208201905092915050565b6000620006e582620006f8565b9050919050565b60008115159050919050565b600073ffffffffffffffffffffffffffffffffffffffff82169050919050565b6000819050919050565b6200072d81620006d8565b81146200073957600080fd5b5056fe608060405260008060156101000a81548160ff0219169083151502179055506200002e6200011560201b60201c565b600160006101000a81548173ffffffffffffffffffffffffffffffffffffffff021916908373ffffffffffffffffffffffffffffffffffffffff1602179055506040516200135a3803806200135a833981810160405281019062000093919062000221565b620000b3620000a76200013e60201b60201c565b6200014660201b60201c565b60008060146101000a81548160ff02191690831515021790555080600160006101000a81548173ffffffffffffffffffffffffffffffffffffffff021916908373ffffffffffffffffffffffffffffffffffffffff160217905550506200029b565b60008060009054906101000a900473ffffffffffffffffffffffffffffffffffffffff16905090565b600033905090565b60008060009054906101000a900473ffffffffffffffffffffffffffffffffffffffff169050816000806101000a81548173ffffffffffffffffffffffffffffffffffffffff021916908373ffffffffffffffffffffffffffffffffffffffff1602179055508173ffffffffffffffffffffffffffffffffffffffff168173ffffffffffffffffffffffffffffffffffffffff167f8be0079c531659141344cd1fd0a4f28419497f9722a3daafe3b4186f6b6457e060405160405180910390a35050565b6000815190506200021b8162000281565b92915050565b6000602082840312156200023457600080fd5b600062000244848285016200020a565b91505092915050565b60006200025a8262000261565b9050919050565b600073ffffffffffffffffffffffffffffffffffffffff82169050919050565b6200028c816200024d565b81146200029857600080fd5b50565b6110af80620002ab6000396000f3fe60806040526004361061009c5760003560e01c80635c975abb116100645780635c975abb1461013a578063715018a6146101655780638da5cb5b1461017c5780638f134025146101a7578063d0e30db0146101e4578063f2fde38b146101ee5761009c565b806302fb0c5e146100a15780630f15f4c0146100cc5780632673bd74146100e35780633e4e10d61461010c57806351b42b0014610123575b600080fd5b3480156100ad57600080fd5b506100b6610217565b6040516100c39190610f13565b60405180910390f35b3480156100d857600080fd5b506100e161022a565b005b3480156100ef57600080fd5b5061010a60048036038101906101059190610d7c565b610356565b005b34801561011857600080fd5b50610121610682565b005b34801561012f57600080fd5b50610138610850565b005b34801561014657600080fd5b5061014f61097a565b60405161015c9190610f13565b60405180910390f35b34801561017157600080fd5b5061017a610990565b005b34801561018857600080fd5b50610191610a18565b60405161019e9190610ef8565b60405180910390f35b3480156101b357600080fd5b506101ce60048036038101906101c99190610d53565b610a41565b6040516101db9190610f13565b60405180910390f35b6101ec610a61565b005b3480156101fa57600080fd5b5061021560048036038101906102109190610d2a565b610b3c565b005b600060159054906101000a900460ff1681565b600060159054906101000a900460ff161561027a576040517f08c379a000000000000000000000000000000000000000000000000000000000815260040161027190610f8e565b60405180910390fd5b610282610c34565b73ffffffffffffffffffffffffffffffffffffffff166102a0610a18565b73ffffffffffffffffffffffffffffffffffffffff16146102f6576040517f08c379a00000000000000000000000000000000000000000000000000000000081526004016102ed90610f6e565b60405180910390fd5b6001600060156101000a81548160ff0219169083151502179055503373ffffffffffffffffffffffffffffffffffffffff167ff7e9fe69e1d05372bc855b295bc4c34a1a0a5882164dd2b26df30a26c1c8ba1560405160405180910390a2565b61035e610c34565b73ffffffffffffffffffffffffffffffffffffffff1661037c610a18565b73ffffffffffffffffffffffffffffffffffffffff16146103d2576040517f08c379a00000000000000000000000000000000000000000000000000000000081526004016103c990610f6e565b60405180910390fd5b6002600082815260200190815260200160002060009054906101000a900460ff1615610433576040517f08c379a000000000000000000000000000000000000000000000000000000000815260040161042a90610f8e565b60405180910390fd5b60008311610476576040517f08c379a000000000000000000000000000000000000000000000000000000000815260040161046d90610f8e565b60405180910390fd5b824710156104b9576040517f08c379a00000000000000000000000000000000000000000000000000000000081526004016104b090610f8e565b60405180910390fd5b600073ffffffffffffffffffffffffffffffffffffffff168273ffffffffffffffffffffffffffffffffffffffff161415610529576040517f08c379a000000000000000000000000000000000000000000000000000000000815260040161052090610f8e565b60405180910390fd5b600160009054906101000a900473ffffffffffffffffffffffffffffffffffffffff1673ffffffffffffffffffffffffffffffffffffffff168273ffffffffffffffffffffffffffffffffffffffff1614156105ba576040517f08c379a00000000000000000000000000000000000000000000000000000000081526004016105b190610f8e565b60405180910390fd5b60016002600083815260200190815260200160002060006101000a81548160ff0219169083151502179055508173ffffffffffffffffffffffffffffffffffffffff166108fc849081150290604051600060405180830381858888f1935050505015801561062c573d6000803e3d6000fd5b508173ffffffffffffffffffffffffffffffffffffffff167f6379339f0ae63e95e65fad18ca2a7ec4e7e3f05f3cc5f7079f4d8da8cec34faa8483604051610675929190610fc9565b60405180910390a2505050565b600060159054906101000a900460ff16156106d2576040517f08c379a00000000000000000000000000000000000000000000000000000000081526004016106c990610f8e565b60405180910390fd5b6106da610c34565b73ffffffffffffffffffffffffffffffffffffffff166106f8610a18565b73ffffffffffffffffffffffffffffffffffffffff161461074e576040517f08c379a000000000000000000000000000000000000000000000000000000000815260040161074590610f6e565b60405180910390fd5b60004711610791576040517f08c379a000000000000000000000000000000000000000000000000000000000815260040161078890610f8e565b60405180910390fd5b6000479050600160009054906101000a900473ffffffffffffffffffffffffffffffffffffffff1673ffffffffffffffffffffffffffffffffffffffff166108fc829081150290604051600060405180830381858888f193505050501580156107fe573d6000803e3d6000fd5b503373ffffffffffffffffffffffffffffffffffffffff167fa9304f0ac97f820b11d5a66f29245fb1e76b1f1f93f46a84a71682e69d095e80826040516108459190610fae565b60405180910390a250565b600060159054906101000a900460ff1661089f576040517f08c379a000000000000000000000000000000000000000000000000000000000815260040161089690610f8e565b60405180910390fd5b6108a7610c34565b73ffffffffffffffffffffffffffffffffffffffff166108c5610a18565b73ffffffffffffffffffffffffffffffffffffffff161461091b576040517f08c379a000000000000000000000000000000000000000000000000000000000815260040161091290610f6e565b60405180910390fd5b60008060156101000a81548160ff0219169083151502179055503373ffffffffffffffffffffffffffffffffffffffff167f238ce44d0fada9e1348f183a8436996fb52b4c41a9cbf3af6e2dee00fcb80a9c60405160405180910390a2565b60008060149054906101000a900460ff16905090565b610998610c34565b73ffffffffffffffffffffffffffffffffffffffff166109b6610a18565b73ffffffffffffffffffffffffffffffffffffffff1614610a0c576040517f08c379a0000000000000000000000000000000000000000000000000000000008152600401610a0390610f6e565b60405180910390fd5b610a166000610c3c565b565b60008060009054906101000a900473ffffffffffffffffffffffffffffffffffffffff16905090565b60026020528060005260406000206000915054906101000a900460ff1681565b610a6961097a565b15610aa9576040517f08c379a0000000000000000000000000000000000000000000000000000000008152600401610aa090610f4e565b60405180910390fd5b60003411610aec576040517f08c379a0000000000000000000000000000000000000000000000000000000008152600401610ae390610f8e565b60405180910390fd5b3373ffffffffffffffffffffffffffffffffffffffff167f2da466a7b24304f47e87fa2e1e5a81b9831ce54fec19055ce277ca2f39ba42c434604051610b329190610fae565b60405180910390a2565b610b44610c34565b73ffffffffffffffffffffffffffffffffffffffff16610b62610a18565b73ffffffffffffffffffffffffffffffffffffffff1614610bb8576040517f08c379a0000000000000000000000000000000000000000000000000000000008152600401610baf90610f6e565b60405180910390fd5b600073ffffffffffffffffffffffffffffffffffffffff168173ffffffffffffffffffffffffffffffffffffffff161415610c28576040517f08c379a0000000000000000000000000000000000000000000000000000000008152600401610c1f90610f2e565b60405180910390fd5b610c3181610c3c565b50565b600033905090565b60008060009054906101000a900473ffffffffffffffffffffffffffffffffffffffff169050816000806101000a81548173ffffffffffffffffffffffffffffffffffffffff021916908373ffffffffffffffffffffffffffffffffffffffff1602179055508173ffffffffffffffffffffffffffffffffffffffff168173ffffffffffffffffffffffffffffffffffffffff167f8be0079c531659141344cd1fd0a4f28419497f9722a3daafe3b4186f6b6457e060405160405180910390a35050565b600081359050610d0f8161104b565b92915050565b600081359050610d2481611062565b92915050565b600060208284031215610d3c57600080fd5b6000610d4a84828501610d00565b91505092915050565b600060208284031215610d6557600080fd5b6000610d7384828501610d15565b91505092915050565b600080600060608486031215610d9157600080fd5b6000610d9f86828701610d15565b9350506020610db086828701610d00565b9250506040610dc186828701610d15565b9150509250925092565b610dd481611003565b82525050565b610de381611015565b82525050565b6000610df6602683610ff2565b91507f4f776e61626c653a206e6577206f776e657220697320746865207a65726f206160008301527f64647265737300000000000000000000000000000000000000000000000000006020830152604082019050919050565b6000610e5c601083610ff2565b91507f5061757361626c653a20706175736564000000000000000000000000000000006000830152602082019050919050565b6000610e9c602083610ff2565b91507f4f776e61626c653a2063616c6c6572206973206e6f7420746865206f776e65726000830152602082019050919050565b6000610edc600083610ff2565b9150600082019050919050565b610ef281611041565b82525050565b6000602082019050610f0d6000830184610dcb565b92915050565b6000602082019050610f286000830184610dda565b92915050565b60006020820190508181036000830152610f4781610de9565b9050919050565b60006020820190508181036000830152610f6781610e4f565b9050919050565b60006020820190508181036000830152610f8781610e8f565b9050919050565b60006020820190508181036000830152610fa781610ecf565b9050919050565b6000602082019050610fc36000830184610ee9565b92915050565b6000604082019050610fde6000830185610ee9565b610feb6020830184610ee9565b9392505050565b600082825260208201905092915050565b600061100e82611021565b9050919050565b60008115159050919050565b600073ffffffffffffffffffffffffffffffffffffffff82169050919050565b6000819050919050565b61105481611003565b811461105f57600080fd5b50565b61106b81611041565b811461107657600080fd5b5056fea2646970667358221220a62d7100aa9b5d36ed35537b6dd2757d710e279fc3881c4158eae9be15cd7cb964736f6c63430008000033a2646970667358221220f595a9601c9bf738a50d0e6f34476a747d597b143adc7186a113705eea13974064736f6c63430008000033",
  "immutableReferences": {},
  "source": "// SPDX-License-Identifier: MIT\npragma solidity >=0.4.22 <0.9.0;\n\nimport \"@openzeppelin/contracts/access/Ownable.sol\";\nimport \"@openzeppelin/contracts/security/Pausable.sol\";\nimport \"./Room.sol\";\n\ncontract RoomFactory is Ownable, Pausable {\n  event RoomCreated(address indexed _creator, address _room, uint256 _depositedValue);\n\n  function createRoom() external payable whenNotPaused {\n    Room room = new Room{value: msg.value}(msg.sender);\n    emit RoomCreated(msg.sender, address(room), msg.value);\n  }\n}",
  "sourcePath": "/Users/gimtaemin/myproject/contracts/RoomFactory.sol",
  "compiler": {
    "name": "solc",
    "version": "0.8.0+commit.c7dfd78e.Emscripten.clang"
  },
  "schemaVersion": "3.4.3",
  "updatedAt": "2021-10-04T12:01:51.260Z",
  "networkType": "ethereum",
  "devdoc": {
    "kind": "dev",
    "methods": {
      "owner()": {
        "details": "Returns the address of the current owner."
      },
      "paused()": {
        "details": "Returns true if the contract is paused, and false otherwise."
      },
      "renounceOwnership()": {
        "details": "Leaves the contract without owner. It will not be possible to call `onlyOwner` functions anymore. Can only be called by the current owner. NOTE: Renouncing ownership will leave the contract without an owner, thereby removing any functionality that is only available to the owner."
      },
      "transferOwnership(address)": {
        "details": "Transfers ownership of the contract to a new account (`newOwner`). Can only be called by the current owner."
      }
    },
    "version": 1
  },
  "userdoc": {
    "kind": "user",
    "methods": {},
    "version": 1
  }
}